:020000040040BA
:10000000A55AA55A01000000FFFFFFFF0020400095
:10001000FFFFFFFF00204000FFFFFFFF0020400028
:10002000FFFFFFFF0000000000204000FFFFFFFF78
:10003000FFFFFFFFFFFFFFFFFFFFFFFFFFFFFFFFD0
:10004000FFFFFFFFFFFFFFFFFFFFFFFFFFFFFFFFC0
:10005000FFFFFFFFFFFFFFFFFFFFFFFFFFFFFFFFB0
:10006000FFFFFFFFFFFFFFFFFFFFFFFFFFFFFFFFA0
:102000000000022021244000D55C4100AD274000A3
:10201000D95C4100DB5C4100DD5C41000000000058
:10202000000000000000000000000000DF5C410034
:10203000E15C410000000000E35C4100E55C410020
:10204000E75C4100E75C4100E75C4100E75C410080
:10205000E75C4100E75C4100E75C4100E75C410070
:10206000E75C4100E75C4100E75C4100E75C410060
:10207000E75C4100E75C4100E75C4100E75C410050
:10240000E75C4100E75C410000BF00BF00BF00BFC8
:10241000FFF7FABF0000000000000000000000000D
:1024200072B64FF000004FF000014FF000024FF085
:1024300000034FF000044FF000054FF000064FF08E
:1024400000074FF0640001380028FCDC5C4801689C
:102450004FF0807201EA0201002924D15948016835
:102460004FF0807241EA02010160574801684FF065
:10247000010241EA02010160544845F6F021016081
:102480004AF20F510160504801684FF0010201EA21
:1024900002010129F7D04A4801684FF0807201EA31
:1024A00002010029F7D04A484CF2205101604DF654
:1024B000281101604748484901604848484901607F
:1024C0004849086820F0040040F0010008604649CF
:1024D000086820F0040040F001000860434800282C
:1024E00014D0434801684FF0010201EA02010029BB
:1024F00002D0404A404B01E0404A3F4B9A4205DA45
:1025000000200021E2E802019A42FBDB3C4800285F
:1025100016D03C4A12684FF07F4302EA03024FEAAA
:102520001262092A02D1384A384B01E0364A384B48
:102530009A4205DA00200021E2E802019A42FBDB20
:102540003448002816D02F4A12684FF47F0302EA5D
:1025500003024FEA1242082A02D12F4A2F4B01E010
:102560002D4A2F4B9A4205DA00200021E2E80201B1
:102570009A42FBDB2B4800684FF05A318842F9D071
:10258000294880F3088813F0D9FD284801684FF0E6
:102590000000814202D013F015FC01E013F0CCFBE7
:1025A0000E482349016013F045FC62B613F038FC75
:1025B00000F040F800BFFEE7AFF30080AFF300800B
:1025C00010C32D4030C32D4004C32D4000C02D400A
:1025D0001000274000002740400000FF08ED00E009
:1025E0000020400094EF00E090EF00E001000000C8
:1025F00000C028400000402000404420000040204F
:10260000010000001400264000000020000002200D
:102610000000012001000000000000000000010097
:1026200000800000E01C4020000002200400264042
:102630000000002038B5304805F018FA2F49132063
:1026400013F042F901220D212D4812F0AFFF2D4861
:102650000AF05FF92C4900200AF0B6FE2B49002051
:102660000AF0C8FE002108460AF066FF00F0B6F83E
:10267000044628B100220D21214812F097FFFEE701
:1026800000F026FE01F040F8054628B122460D2153
:102690001B4812F08BFFFEE701F0BEFD044628B197
:1026A0002A460D21164812F081FFFEE701F03AFF9D
:1026B00001F022FE00F06CFA00F022FA00F00AFFAE
:1026C00000F082FF00F0CEFA02F002F800F0D0FE37
:1026D00003210F4800F018FA0E4A214620460AF05E
:1026E000FBFE28B122460D21054812F05FFFFEE7F0
:1026F00000F026FAFCE700BFC0634100546B4100C4
:1027000000172940F46A4100506B4100406B4100C2
:10271000F0614100801A060000F024BE08B500F008
:10272000E7FD01F0BDFB00F0A7FF00F0D3FA00F0D9
:1027300037FE00F039FA01F0CFF801F025F901F089
:102740006DF901F023FA01F043FA01F043FD01F0C5
:1027500061FA01F09BFA01F011FBBDE8084001F0BD
:1027600065BB38B50F4C00F055F800F0CBF901F01F
:10277000F1FD23680133312B01D8236038BD0025DA
:102780002279256032B90D21074812F00FFF01238D
:102790002371F3E701220D21034812F007FF257191
:1027A000ECE700BF00004020001729404FF0E02276
:1027B000084BD2F82C1D9960D2F8281DD960D2F8A8
:1027C000341D1961D2F8381D5961D2F83C2D9A6137
:1027D000FEE700BF0000402000F0AAB908B50B4991
:1027E000012003F071FC08B1012008BD012003F0B5
:1027F00005F90028F8D1064903F066FC0028F3D15A
:1028000003F0FCF8003818BF0120EEE798624100A1
:102810002863410030B5534C97B02378002B5BD030
:102820006B4600222221012003F04CF8012102AB6B
:102830000022084603F046F804AB002220210120C4
:1028400003F040F806AB00222121012003F03AF802
:1028500008AB00220421012003F034F80AAB002267
:102860002321012003F02EF80CAB002224210120AB
:1028700003F028F89DF80130002B6ED09DF8093048
:10288000002B6AD09DF81130002B66D09DF81930CE
:10289000002B62D09DF82930002B5ED09DF831309E
:1028A000002B5AD0BDF804306380BDF80C30A380F3
:1028B000BDF81430E380BDF81C302381BDF82C3006
:1028C0006381BDF83430A3810123A3739DF82130C7
:1028D00013B1BDF824302382A37C8BB300220EAB4E
:1028E0001146104602F0EEFF002210AB0121104607
:1028F00002F0E8FF002212AB0321104602F0E2FFD3
:10290000002214AB0421104602F0DCFF9DF83930A0
:102910002BB39DF8413013B39DF84930FBB19DF8BE
:102920005130E3B1BDF83C30A382BDF84430E382BE
:10293000BDF84C302383BDF85430638301232377E3
:102940000021012002F034FF0021012508462570F6
:1029500002F02EFFA57417B030BD0023B5E70023A9
:10296000EDE700BF1C004020014B588880B2704743
:102970001C004020054B588840F6E44380B2584381
:1029800043F6FF73B0FBF3F080B270471C004020A9
:10299000014B988880B270471C004020014BD888BA
:1029A00080B270471C004020014B188980B27047EC
:1029B0001C004020014B188A80B270471C00402048
:1029C000054B188A40F6E44380B2584343F6FF7340
:1029D000B0FBF3F080B270471C004020014B5889D7
:1029E00080B270471C004020054B588940F6E443F4
:1029F00080B2584343F6FF73B0FBF3F080B27047E8
:102A00001C004020014B988980B270471C00402078
:102A1000054B988940F6E44380B2584343F6FF7370
:102A2000B0FBF3F080B270471C004020054B988843
:102A300040F6E44380B2584343F6FF73B0FBF3F033
:102A400080B270471C004020014B988A80B27047CA
:102A50001C004020014BD88A80B270471C004020E7
:102A6000014B188B80B270471C004020014B588BE3
:102A700080B270471C004020054B988A40F6E44322
:102A800080B2584343F6FF73B0FBF3F080B2704757
:102A90001C004020054BD88A40F6E44380B25843DE
:102AA00043F6FF73B0FBF3F080B270471C00402088
:102AB000054B188B40F6E44380B2584343F6FF734E
:102AC000B0FBF3F080B270471C004020054B588BE0
:102AD00040F6E44380B2584343F6FF73B0FBF3F093
:102AE00080B270471C004020014B987B704700BFAC
:102AF0001C004020014B187F704700BF1C00402085
:102B000000F0B0B800F0E6B808294FF0200228BF66
:102B1000082110B5054C206004F108006160002117
:102B200002F018FA0023A36210BD00BF3C00402051
:102B3000024A936A01339362704700BF3C00402011
:102B40002DE9F04172B6104E4FF00008B76AC6F892
:102B5000288062B60FB9BDE8F081013F0B4D00241B
:102B60007368A342F6D92B683268013302EBC401C3
:102B70002B6049688B4204D352F83430C5F800808A
:102B8000984701340435EBE73C00402044004020E6
:102B9000014B00221A60704768004020014B186802
:102BA000704700BF6800402070B5294C2368032B94
:102BB00006D8DFE803F00207203801F061FD80B39A
:102BC000032316E00025234B1D70234B1D7001F0DD
:102BD00057FD224A08B11570F2E7117861B3107001
:102BE00001F0A4FB012001F0A1FB022001F09EFBFB
:102BF0000223236020E00025164B184E1D7035700F
:102C000001F03EFD144A08B13570E4E7117899B13E
:102C1000107001F095FB012001F092FB022001F001
:102C20008FFB0123E5E70B4B1A782AB100221A70BB
:102C300001F026FD0028F4D023680F210848022B5C
:102C4000BDE870400CBF0022012212F0AFBC00BFF3
:102C5000680040206004402088014020800140201E
:102C60000017294070B54022194C00250026A018F5
:102C7000294626606660A660A585A563A587C4E988
:102C80000C5502F067F90F22294604F10C00C4F834
:102C90008060C4F88460C4F88860A4F88C5084F81C
:102CA0008E5002F057F90F22294604F11C0002F061
:102CB00051F9012384F89850A4F89A50C4F89C5014
:102CC000A4F8A050C4F8A430C4E9245570BD00BFD6
:102CD0006C0040202DE9F8432DED028BFFF704FF37
:102CE000924E0546924C002800F08D80337803F018
:102CF000FF05002B00F087808E4B9FED8F8A1B68AD
:102D00002360FFF771FE07EE900AF8EE677A87EE10
:102D1000887A84ED017AFFF77BFE07EE900A0023A4
:102D2000F8EE677A87EE887A84ED027AC4F8A430E8
:102D3000824B84F8A1501B6843B133784FF40021D3
:102D400003F0FF00002B60D101F0F6FB7C4B997C77
:102D5000DA7C187DC9B2D2B284F83C00587D84F880
:102D60003A1084F83D00987C84F83B202076587D0A
:102D700068B11868E0609888A08598682063D86872
:102D80006063187C5B7C84F8380084F839304FF439
:102D9000803001B1EABB01F01BFC94F83C304FF4E9
:102DA0000030CBBB01F014FC94F839304FF4802094
:102DB000ABB301F00DFC3278257E02F0FF0392B335
:102DC00085B3D4ED037A2B46DFED5B6AB8EEE77A84
:102DD000C7EE267A94ED007A67EE877A0026C4ED76
:102DE000077A84F8283084F8296084F82A60EDB9DD
:102DF0004FF48011284601F0ABFB4FF40011002086
:102E000001F0A6FB2CE0012390E7002001F0A0FBDD
:102E10009CE701F0E5FBC0E701F0E2FBC4E701F04D
:102E2000DFFBC8E72B46DFED477AD7E74FF4801189
:102E30003046E56801F0ACFB00285BD0424B9D4278
:102E400004DB4FF48011304601F082FB4FF4001197
:102E5000002001F09DFB002854D03C4B9D42CCDD6E
:102E60003B4D95F82830002B54D02946394A102381
:102E7000DFED317A31F8020B013B07EE100A13F057
:102E8000FF03B8EE477AC7EE276AE2EC016AF1D198
:102E90002B8C402007EE103A6B8CB8EE477AC7EEC9
:102EA000276A07EE103AAB8CB8EE477AC4ED206A79
:102EB000C7EE276A07EE103AEB8CA4F88C3001239A
:102EC000B8EE477A84F88E30C4ED216AC7EE276ADF
:102ED000C4ED226A01F084FB042001F08FFB6B8CAF
:102EE00000283DD141F29902934240D9042001F0DB
:102EF0006FFB3CE0184B9D42A8DA4FF4801101F0C3
:102F00001BFBA3E7154B9D42AADD4FF4001101F016
:102F100013FBA5E7402084F88E3001F059FB042014
:102F200001F05EFB082001F05BFB2AE04104402039
:102F30006C004020BC04402000007A44C0044020C3
:102F40005C0140200000000070A0FEFF7011010035
:102F50002E014020AC0040206179FEFF7F38010047
:102F600041F23602934202D8042001F039FB0820D6
:102F700001F044FB2A8C002879D040F68B239A423A
:102F8000D0D894F88E30002B79D14FF4004001F066
:102F900027FB002000F0DCF984F89600012000F007
:102FA000D7F984F89700022000F0D2F994F896300F
:102FB00084F8980023B1002000F0C0F9A4F8900034
:102FC00094F8973023B1012000F0B8F9A4F89200EA
:102FD00094F8983023B1022000F0B0F9A4F89400DE
:102FE00000235F4E6FF09B090320B64619469C46AE
:102FF0001F461A46A9EB0409A4F89A30C4F89C307D
:103000001EF8018FB8F1000F09D039F91E50002ABF
:1030100047D0AF42C4BF94462F468D4247DC0138AB
:1030200010F0FF00ECD10BB1A4F89C10BCF1000F24
:1030300001D0A4F89A7032B1B4F89C30B4F89A1068
:103040005B1AA4F89E30002584F8A02016F8013FF2
:103050004FF4005128466BBB01F06EFA1021284650
:1030600001F076FA2021284601F072FA3CE040F6A1
:10307000C4139A4285D8082001F0AAFA81E74FF4D8
:10308000004001F0BBFAAB8C10B1C82B81D87CE7B3
:10309000B3F5967FFFF47DAF4FF4004001F098FA4E
:1030A00077E743462946C4462F464246B7E71346CC
:1030B0002946B4E701F04CFA102104EB45032846F9
:1030C000B3F9907001F064FA58B340F29E739F42D6
:1030D00003DC1021284601F03BFA2021284601F0AC
:1030E00057FA30B39637BDDA0135032DAED1B4F8B7
:1030F000962040F201139A420BD194F8983043B1D4
:103100004FF4804001F07AFAB4F99E30C0B1642BDC
:1031100021DC4FF48040BDEC028BBDE8F84301F0A8
:103120005FBAB7F5FA6FD8DB1021284601F004FA30
:10313000D3E7C737D8DA2021284601F0FDF9D3E7D5
:10314000B3F5FA7F07DB4FF48040BDEC028BBDE89E
:10315000F84301F03DBABDEC028BBDE8F88300BF37
:1031600001014020004870476C00402013B560F01A
:103170007F0000230C4603228DF8000001A9684659
:103180008DF801308DF8023001F05EF828B9BDF8F5
:1031900005305BBA238002B010BD0120FBE707B504
:1031A00000F07F000B0A8DF8061003218DF8040053
:1031B00001A88DF8053001F063F803B05DF804FB59
:1031C00001B1D3E70120704701210846FFF7E7BFAF
:1031D00073B5054610B9012002B070BD012102206F
:1031E000FFF7DDFF0028F6D1AE1E10240DF1060119
:1031F0002046FFF7BBFF0028EDD10134BDF80630B3
:10320000E4B226F8023F1C2CF0D12883E4E700004A
:1032100007EE900ADFED266AB8EE677A10B5C7EEC2
:10322000267A0C462DED028BB7EE008AF5EEC07AB9
:10323000F1EE10FA35D9F4EE487A9FED1E7AF1EEF0
:1032400010FA67FE277A78EE676A9FED1B0A87EE11
:10325000A67A27EE007A87EE000A01F083FEDFED02
:10326000177A9FED177A00EE277AC8EE077A9FED5E
:10327000157A77EEC77AB2EE047A67EE877AFDEEBA
:10328000E77A17EE903A1BB213F5C87F0CDB40F2D9
:10329000E24293420ADD134601202380BDEC028BFB
:1032A00010BDDFED097ACEE7084BF5E70020F4E723
:1032B00000FC7F46EFFF7F3F00401C4693A19839FA
:1032C0000FCF5B3B33938843BD37863570FEFFFFDE
:1032D000044B00221A809A715A80DA719A801A720D
:1032E000704700BF1401402001B191E701207047F1
:1032F00073B5114D0024AE1F012CE3B214D0022B84
:1033000015D0FFF745FB0DF10601FFF781FF88B9E6
:10331000BDF8063026F814300123013405F8013BCE
:10332000032CE9D102B070BDFFF738FBEBE7FFF7E4
:103330003BFBE8E70023F0E71A014020C0B2022877
:103340009ABF024B33F9100000207047140140204F
:10335000C0B202289DBF024B1B189879002070470D
:103360001401402038B50D4CA3793BB1A3684EF64B
:103370005F2203F57A73934201D8A36038BD00231E
:10338000A588A360A389AB4200D8F7D0284601F0F6
:1033900011FA0028F2D0A581F0E700BF20014020FB
:1033A00008B5FFF7DFFE1D4BA8B3027E2AB390EDF0
:1033B000037AD3ED007AB8EEC77ADFED196A47EEEB
:1033C000267A9FED187AF4EEC77AF1EE10FA16DD40
:1033D00083ED007ADFED146AD3ED007A67EEA67A0A
:1033E000C7EE876AB2EE047AF6EE007A46EE877A86
:1033F000FCEEE77A17EE901A99809A7108BDF5EE07
:10340000C07ADFED0A6AF1EE10FA48BFF0EE667A94
:10341000C3ED007ADEE70246EFE700BF200140205F
:103420005304E9370050C3470000C84200000000C1
:103430000048704720014020B0F57A7F9FED097A5F
:10344000DFED096A28BF4FF47A70084B07EE900A47
:103450009880F8EE677A67EE877A87EEA67A83ED32
:10346000007A70470050C34700007A442001402092
:1034700007B50DF1060001F061F90A4A58B1BDF82F
:103480000600FFF7D9FF938893810023936093711F
:1034900003B05DF804FB044B13604FF4FA739380A0
:1034A000F1E700BF20014020005043470A88084B45
:1034B00010B523F81020421C4C8823F81240821CBF
:1034C0008C88033023F81240CA8823F8102010BDDE
:1034D0002E01402008B50B4B20220021184601F098
:1034E00039FD002280F82A2080F82B2080F82C203B
:1034F00080F82D20028442848284C28480F82820AF
:1035000008BD00BF2E014020F8B5002948D0072A89
:1035100046D96FF480631844032841D8DFE800F0EF
:10352000023441490020FFF7C1FF264B012283F8F6
:103530002A20244B93F82B2092B393F82C207AB3B3
:1035400093F82D2062B3198800251F4601200A46F2
:103550002E4637F8024F5FFA80FC01308C423CBFA8
:1035600066462146944284BF654622461028F0D123
:103570005A84521A19849A84012283F8266083F8A7
:10358000275083F828200BE00420FFF78FFF0D4B16
:10359000012283F82B200B4B93F82A30002BC8D143
:1035A000F8BD0820FFF782FF064B012283F82C208C
:1035B000F1E70C20FFF77AFF024B012283F82D2060
:1035C000E9E700BF2E014020094B00221A609A83D0
:1035D0009A80DA839A6083F82020DA6083F82120C9
:1035E0001A745A749A74DA741A755A759A61704713
:1035F0005C014020F2B1B0F5826F2AD1072919D9B8
:1036000011681C4B1960B2F90410998091791974F2
:10361000D27993F821105A7400229A8301229A7465
:1036200049B9197C83F8212083F820101A759A690A
:1036300001329A61704793F82020197C013202F020
:103640000F02511A4A424A411A751A7C83F8202007
:10365000EDE740F211439842ECD10729EAD911680D
:10366000044B99605268DA600022DA830122DA742E
:10367000DDE700BF5C014020114B9A8B092A9CBFFB
:1036800001329A83DA8B092A9CBF0132DA839A8B42
:10369000092A01D900229A74DA8B092A01D9002259
:1036A000DA74997C01F0FF0229B1D97C01F0FF02A4
:1036B00009B11A7DD2B202F001025A75704700BFFB
:1036C0005C014020B5EEC00AF1EE10FA14D9F2EE1A
:1036D000047A20EE270ADFED0B7AB4EEE70AF1EE6A
:1036E00010FA0BDCF6EE007A30EE270ABCEEC00AC8
:1036F00010EE103A98B27047002070474FF6FF70F6
:10370000704700BF00FF7F472DE9F843664C00205B
:10371000664A04F1080366496460E36006F088FBCA
:103720002061206910B10120BDE8F8834FF40073D7
:10373000604A012106F098FC206120690028F2D13E
:1037400040F201235B4A022106F08EFC20612069D1
:103750000028E8D107F04AFB206120690028E2D167
:10376000012304F11402194606F0C8FC6066606E7D
:103770000028D8D1012304F16802022106F0BEFC22
:10378000C4F8B800D4F8B830002BCCD14A4A012094
:103790004A4906F04DFBC4F8BC00D4F8BC30002BFD
:1037A000C1D1474E0425DFF80C9106F104083746D5
:1037B00058F8043B4A4617F8011B012006F054FC58
:1037C000C4F8BC00D4F8BC30002BACD1013D15F0DE
:1037D000FF05EDD1012007F009FBC4F8BC00D4F8C7
:1037E000BC50002D9FD1374F01233A4616F8011BDC
:1037F000184606F083FC04EB8503C3F80002D3F8F7
:103800000032002B8FD101355037042DECD12E4AD8
:1038100002202E4906F00CFBC4F81002D4F8103236
:10382000002B80D14FF48263224A0121022006F04E
:103830001BFCC4F81002D4F81032002B7FF473AFD5
:10384000022140F211431B4A084606F00DFCC4F861
:103850001002D4F81032002B7FF465AF022007F07D
:10386000C5FAC4F81002D4F81032002B7FF45BAF15
:103870000123174A0220194606F040FCC4F86402EE
:10388000D4F86432002B7FF44EAF02210123114A99
:10389000084606F033FCC4F86402D4F86402003829
:1038A00018BF012040E700BF800140208C6A410022
:1038B000000640207C1D4020246A41006012402008
:1038C0000862410040024020BC694100300C4020A9
:1038D00094034020E8034020F0B585B0FFF742FC98
:1038E000054600284AD0B0F99070B0F99260B0F95E
:1038F0009440FFF753F98DF80970C7F307278DF847
:103900000B60C6F307268DF80D40C4F307248DF82D
:1039100008008DF80E408DF80A708DF80C6000F0EC
:10392000AFFE044600F09CFE10B144F00204E4B285
:1039300095F8963013B144F00404E4B295F897304A
:1039400013B144F00804E4B295F8983013B144F090
:103950001004E4B200218DF80F40084607F00CFA7D
:1039600064230021064A019302AB084600934FF4FA
:10397000407306F0D3FF034BC3F8B80205B0F0BDA7
:10398000881D4020800140201FB5FFF7EBFB024659
:1039900000283DD090ED000AFFF794FE92ED010A59
:1039A0000446FFF78FFE92ED020A0146FFF78AFEFA
:1039B000D2F8A430ADF80840164C03F00F03ADF870
:1039C0000A1094F8BC12ADF80C0043EA0113002170
:1039D0008DF80E30084692F8A1308DF80F3007F0C0
:1039E000CBF9642300210C4A019302AB08460093F3
:1039F00040F2013306F092FFC4F8B802D4F8B832AE
:103A000033B994F8BC32013303F00F0384F8BC32AD
:103A100004B010BD80014020881D402030B5002436
:103A200089B02046CDE9064400F006FD8DF8180067
:103A3000012000F001FD8DF81900022000F0FCFCCF
:103A40008DF81A00204600F0FFFCC0F307238DF824
:103A50000C00C0F307408DF80D308DF80E000120EA
:103A600000F0F2FCC0F307238DF81000C0F307400C
:103A70008DF811308DF81200022000F0E5FCC0F343
:103A800007238DF81400C0F307408DF815309DF81A
:103A90000C308DF816002BB19DF81B3043F001035C
:103AA0008DF81B309DF80D302BB19DF81B3043F085
:103AB00002038DF81B309DF80E302BB19DF81B30A2
:103AC00043F004038DF81B309DF810302BB19DF8A6
:103AD0001C3043F001038DF81C309DF811302BB1E0
:103AE0009DF81C3043F002038DF81C309DF8123015
:103AF0002BB19DF81C3043F004038DF81C309DF869
:103B000014302BB19DF81D3043F001038DF81D30AA
:103B10009DF815302BB19DF81D3043F002038DF850
:103B20001D309DF816302BB19DF81D3043F0040375
:103B30008DF81D30134C002594F8BD3229462846D7
:103B40008DF81F5003F00F038DF81E3007F014F9A5
:103B500064230D4A29462846019306AB009340F2A0
:103B6000023306F0DBFEC4F8B802D4F8B83233B939
:103B700094F8BD32013303F00F0384F8BD3209B06D
:103B800030BD00BF80014020881D40201FB50020AF
:103B900000F0F4FC0446012000F0F0FC0021CDE927
:103BA0000240084607F0E8F864230021064A019322
:103BB00002AB0846009340F2033306F0AFFE034B1E
:103BC000C3F8B80204B010BD881D40208001402019
:103BD0001FB5022000F0D2FC044600F019FD0021C0
:103BE000CDE90240084607F0C7F864230021074AE0
:103BF000019302AB084600934FF4417306F08EFE2A
:103C0000034BC3F8B80204B010BD00BF881D4020AC
:103C1000800140201A4B30B593F8262085B093F8E8
:103C2000271002F00F02988C5C8C1D8C42EA011266
:103C3000ADF80C004FF40040ADF80A40ADF8085064
:103C400093F828408DF80E2000F0D8FC08B144F01D
:103C5000020400218DF80F40084607F08DF8642318
:103C60000021084A019302AB0846009340F2053355
:103C700006F054FE044BC3F8B80205B030BD00BFD7
:103C80002E014020881D4020800140201FB50023C8
:103C9000CDE90233FFF766FA002856D0C168B1F5C6
:103CA000481F54DA314B994254DB642391FBF3F102
:103CB0000269B2F5481F4FDA2C4B9A424FDB64235E
:103CC00092FBF3F24369B3F5481F4ADA274CA3424B
:103CD0004ADB642493FBF4F3ADF80A20ADF80C3012
:103CE000427E037EADF808108DF80E301AB143F015
:103CF00002038DF80E30837E2BB19DF80E3043F019
:103D000004038DF80E301A4C002194F8BE32084698
:103D100003F00F038DF80F3007F02EF86423002115
:103D2000144A019302AB0846009340F2063306F0B2
:103D3000F5FDC4F8B802D4F8B83233B994F8BE32FD
:103D4000013303F00F0384F8BE3204B010BD47F610
:103D5000FF71ADE70849ABE747F6FF72B2E7064AE5
:103D6000B0E747F6FF73B7E7034BB5E79DFFCDFF1D
:103D700080014020881D40200080FFFF1FB50023E8
:103D8000CDE90233FFF7EEF900283FD0D0ED077AF6
:103D90009FED227AF4EEC77AF1EE10FA38DC9FED4F
:103DA000207AF4EEC77AF1EE10FA34D4FDEEE77A19
:103DB00017EE903A029390F828302BB19DF80C3012
:103DC00043F001038DF80C30164C002194F8BF32FB
:103DD000084603F00F038DF80F3006F0CDFF642383
:103DE0000021114A019302AB0846009340F20733C9
:103DF00006F094FDC4F8B802D4F8B83233B994F898
:103E0000BF32013303F00F0384F8BF3204B010BD9A
:103E10006FF00043CEE74FF00043CBE70000004FC8
:103E2000000000CF80014020881D40201FB50023E6
:103E3000CDE90233FFF7FCFA60B38388ADF80830B0
:103E400083792BB19DF80A3043F001038DF80A30D5
:103E5000114C002194F8C032084603F00F038DF88E
:103E60000F3006F089FF642300210C4A019302AB56
:103E7000084600934FF4427306F050FDC4F8B802B0
:103E8000D4F8B83233B994F8C032013303F00F03D9
:103E900084F8C03204B010BD80014020881D40204D
:103EA0002DE9F84FC24C94F8C13263B1D4F8C43252
:103EB0006433B3F5FA7F35D34FF4FA73C4F8C432E0
:103EC000002384F8C1320121002006F0EFFE012119
:103ED000002006F08DFB6066626E002A48D1A3695F
:103EE000C4F8C83294F85C3084F8CC3294F8CC3200
:103EF000082B02D9082384F8CC3294F8CC12D3B220
:103F0000994215D8D4F8D8320133C4F8D832D4F84D
:103F1000C832B3F5007F11D0D4F8DC320133C4F8D5
:103F2000DC321EE0D4F8C4326433C4F8C432CAE7C9
:103F300023440132197F83F8CD12DEE794F8CC32A6
:103F4000002BE9D094F8CD32032BE5D8DFE813F04D
:103F5000090004000A010C0100220E21954811F00D
:103F600025FB0123944A0020194606F0C7F8606635
:103F70000221002006F09AFE0221002006F038FB04
:103F8000C4F8B800D4F8B820B2B994F8B0305BB136
:103F900094F87030022B00F0EB80032B00F0EC80E3
:103FA000012B01D1237022720123844A02210020B7
:103FB00006F0A4F8C4F8B800DFF810826FF40873B4
:103FC000DFF80CA2002508EB03074FF0500B1AF89E
:103FD000019B0120AE00494606F068FE49460120DB
:103FE00006F006FB04EB8503C3F80002D3F80022B9
:103FF00072BB7968C3F80413631997F8481083F803
:10400000141393F81413082902D9082183F8141300
:1040100061190BFB054C04EBC50E91F81403D3B2E8
:10402000984200F2AD802644D6F818330133C6F822
:104030001833D6F8040391F814234146FFF764FAC5
:1040400001233A464946184606F058F8C6F80002D9
:10405000013508F108085037042DB8D1012102209C
:1040600006F024FE0121022006F0C2FAC4F8640220
:10407000D4F8642222BBD4F8180294F85C12C4F875
:10408000280384F82C1394F82C33082B02D9082326
:1040900084F82C3394F82C53D3B29D4279D8D4F8B9
:1040A000383304F507720133C4F83833FFF7A2FA46
:1040B0000123434A0220194606F020F8C4F864029E
:1040C0000221084606F0F2FD0221084606F090FAA9
:1040D000C4F86402D4F86422002A41D1D4F86C02F6
:1040E00094F8B012C4F8280384F82C1394F82C33F5
:1040F000082B02D9082384F82C3394F82C53D3B21C
:104100009D424DD8D4F8383304F51C720133C4F8FD
:104110003833FFF76FFAD4F86C2240F211439A4219
:1041200016D1B4F870329FED277A07EE903A01234A
:10413000F8EE677A67EE877AC4EDCF7A84F8C132F9
:10414000D4F840330133C4F840330023C4F8C432F8
:10415000022101231C4A084605F0D0FFC4F864027E
:10416000BDE8F88F0122F8E60023C4F8D832F8E65B
:1041700001232372227017E7012384F8E03213E74A
:104180000CEB03007344013290F8C80083F8E1029D
:1041900043E72344013293F81C5283F82D5379E707
:1041A0002344013293F8705283F82D53A5E700BFE2
:1041B000800140200017294094014020E801402060
:1041C00094034020CDCCCC3DE80340206104402046
:1041D000086241001FB50D4A02AB1068516803C365
:1041E0000021012006F0C8FD6423094A0021019343
:1041F00002AB012000934FF4806306F08FFB054B68
:10420000C3F8440305B05DF804FB00BF88624100B9
:10421000881D40208001402038B5094C01250948FF
:10422000256008F059FF022360602360606818B1C0
:1042300003232846236038BD04232360FBE700BF27
:10424000C8044020086B4100134607B590B189B1FE
:1042500082B14FF47A7200920A460146064808F08D
:1042600053FD064B98609868003818BF012003B0D2
:104270005DF804FB0120FAE71C6B4100C8044020F4
:1042800000B50A4691B040B14B1E3F2B05D8694698
:10429000FFF7DAFF11B05DF804FB0120FAE713B570
:1042A0000A46044678B14B1E3F2B0CD80191FF21E2
:1042B000064800F04FFE019A2146044802B0BDE8CE
:1042C0001040FFF7C1BF012002B010BDD404402050
:1042D000034B142202FB00300023038283747047D7
:1042E000140540201422034B50431A181950002380
:1042F000D360704714054020F8B50B490024002610
:104300000F462546204601340D60143101F8105C3B
:1043100001F80F5C41F80C6C41F8085CFFF7D8FF1E
:10432000032CEFD1FE63F8BD14054020034B14228B
:1043300002FB003001238380704700BF140540203A
:10434000034B142202FB00304FF4807383807047CC
:1043500014054020F8B50025364C01262F46236869
:104360002846013B022B9EBFE3680A33E36000F05E
:104370001DF930B12846FFF7ABFF277167710621A1
:104380000AE000F04BF901460028F3D163793BB114
:104390002846FFF79DFF61712846FFF7A3FF2DE038
:1043A0002368062B42D8DFE803F0040D141D262EE7
:1043B00033002846FFF78CFF2379FBB101212771D9
:1043C0002674E9E7E3682674632B17D90221A674E3
:1043D000E2E7E3682674632BA67467740ED90321A1
:1043E0006674D9E7E3682674632B6674A67405D9EE
:1043F0000421A774D0E726746674A77401351434B9
:10440000032DACD1F8BD28460021FFF761FFC3E7BB
:104410002846FFF75DFF284600F0C8F80028EDD1D8
:1044200000F0FCF801460028E8D1B5E72846FFF780
:104430004FFFA4E71405402014235843014B18589C
:10444000704700BF14054020094B142282B002FBC4
:10445000003003690020DAB262F30700C3F30722D9
:10446000C3F3074362F30F2063F3174002B07047B2
:1044700014054020034B142202FB003080ED020A99
:10448000704700BF14054020014B83ED0F0A7047B1
:1044900014054020024B0022C3E900229A607047B5
:1044A0005405402002289CBF014B43F82010704760
:1044B0005405402002289ABF024B53F820000020E8
:1044C000704700BF540540200A4603280ED8DFE895
:1044D00000F00206080A0D21054811F067B80E2108
:1044E000FAE70F21F8E702210248F6E7704700BF1C
:1044F00000172940041729400021E5E70121E3E7DF
:1045000008B50020FFF7FAFF0120FFF7F7FF0220B0
:10451000FFF7F4FF0320BDE80840FFF7EFBFFFF708
:10452000EFBF00BF034B00221A605A609A60DA6046
:10453000704700BF60054020022805D8034A52F8A2
:104540002030194342F82010704700BF600540201A
:10455000022806D8034A52F8203023EA010142F823
:104560002010704760054020022803D8024B00222B
:1045700043F82020704700BF60054020022803D880
:10458000024B53F820007047002070476005402020
:10459000022807D8044B53F820300B4214BF0120E7
:1045A000002070470020704760054020022808D88E
:1045B000054B53F8203005481840003818BF01203B
:1045C00070470120704700BF600540205F3E3F00FC
:1045D000024AD3681843D060704700BF600540208E
:1045E000024AD36823EA0000D0607047600540208B
:1045F000014B0022DA60704760054020034BDB6806
:10460000034214BF01200020704700BF6005402016
:10461000014BD868704700BF60054020034B044839
:10462000DB681840003818BF012070476005402043
:104630005F3E3F00FFF7CCBFFFF7D2BFFFF772BF6F
:10464000014BD868704700BF60054020034BDB6812
:10465000184214BF01200020704700BF60054020B1
:10466000064BDA6842B91A6832B95A6822B99868B2
:10467000003818BF012070470120704760054020B6
:1046800008B5FFF7CBFF40B902461046FFF78EFF93
:1046900018B90132032AF8D108BD0120FCE700BF98
:1046A0000268094B9A420CD10389B3F57A7F08D886
:1046B0004268C0685A40054B53401B1A5842584143
:1046C00070470020704700BF31434F536B19EAF623
:1046D0007FB5174C00234FF08055164823700123F7
:1046E000C4E9015302F09AFA90B9134E6A461021B8
:1046F000284602F04DFB58B9029ADDE900310B4023
:104700001340039A1340013304D1012365602370E1
:1047100004B070BD6846FFF7C3FF20B1A3688B42A9
:104720009CBF0131A1601035B542DFD1EDE700BF7C
:1047300070054020B8634100002000101B4B1B781F
:104740002DE9F043054685B023B90024204605B085
:10475000BDE8F0830028F8D000244FF08059DFF83E
:104760005080264627466A461021484602F010FB34
:104770000028EAD1029ADDE900310B401340039A88
:10478000134001330ED06846FFF78AFF30B10CB1F9
:10479000B94203D9BDF8086004460F4609F1100973
:1047A000C145E0D1002CD0D02E80CFE7700540204D
:1047B0000020001030B5274C89B025781DB90025A0
:1047C000284609B030BDB0F57A7FF8D86268224B30
:1047D0009A42F4D2214B0021ADF808004FF6FF7247
:1047E0000093A368ADF80A20584001931C4B434046
:1047F0000846039302F0EEF903460028DFD16A462B
:104800001021606802F0DCFB0028D8D102F09CFA8D
:104810000128FBD00028D2D104AA1021606802F040
:10482000B7FA0028CBD1049A009B9A42C7D1059AC7
:10483000019B9A42C3D1069A029B9A42BFD1079A22
:10484000039B9A42BBD1636810336360A368013352
:10485000A360B5E7700540200020001031434F539E
:104860006B19EAF682B08DF807009DF807300BB996
:1048700000BEFDE702B070474FF0E023D3F8842D6F
:1048800042F00102C3F8842D0022C3F8502FBFF379
:104890004F8FBFF36F8F70474FF0E021D1F8843D09
:1048A00023F00103F0B5C1F8843DBFF34F8FD1F879
:1048B000803D0024D1F8802D43F6E076C3F34E33DB
:1048C000C2F3C9020133013206EA4415002045EA69
:1048D0008077C1F8607FBFF34F8FBFF36F8F0130D8
:1048E0008242F4D80134A342EED8BFF34F8FBFF316
:1048F0006F8FF0BD08B1FFF7BFBF70474FF0E022E8
:10490000D2F8843D23F00103F0B5C2F8843DBFF333
:104910004F8FD2F8803D43F6E076D2F8802DC3F376
:104920004E330F4CC2F3C9020E490133002808BFB1
:104930000C460132002006EA4015002145EA817745
:104940002760BFF34F8FBFF36F8F01318A42F5D8D5
:1049500001308342EFD8BFF34F8FBFF36F8FF0BDAD
:1049600074EF00E06CEF00E010B54FF0E024D4F8F5
:10497000803D91B103F0070301331B015A1E024031
:104980001144BFF34F8FC91AC4F8580F18440029B7
:10499000F9DCBFF34F8FBFF36F8F10BD10B54FF031
:1049A000E024D4F8843D23F00103C4F8843DBFF330
:1049B0004F8FD4F8803D91B103F0070301331B0101
:1049C0005A1E02401144BFF34F8FC91AC4F85C0F3E
:1049D00018440029F9DCBFF34F8FBFF36F8F10BD70
:1049E0000346084611460BB1FFF7BEBF704730B50E
:1049F0004FF0E025D5F8843D23F00103C5F8843D50
:104A0000BFF34F8FD5F8803D9AB103F00703013310
:104A10001B015C1E0C402244BFF34F8F50B1C5F800
:104A2000701FD21A1944002AF8DCBFF34F8FBFF36E
:104A30006F8F30BDC5F8681FF3E74FF0E022D2F862
:104A4000143D43F40033C2F8143DBFF34F8FBFF35E
:104A50006F8F70474FF0E022D2F8143D43F480335B
:104A6000C2F8143DBFF34F8FBFF36F8F7047BFF392
:104A70004F8FBFF36F8F4FF0E022D2F8143D23F435
:104A80000033C2F8143DBFF34F8FBFF36F8F7047F1
:104A90004FF0E022D2F8143D23F48033C2F8143DE5
:104AA000BFF34F8FBFF36F8F704700BF034AD368C8
:104AB00043F0804343F41273D360704700C0284032
:104AC000034AD36823F0804323F41273D360704702
:104AD00000C0284082B08DF807009DF807300BB960
:104AE00000BEFDE702B0704782B08DF807009DF868
:104AF00007300BB900BEFDE702B0704782B08DF8F9
:104B000007009DF807300BB900BEFDE702B0704703
:104B1000EFF310807047EFF310807047EFF31080D1
:104B20007047EFF310807047EFF310807047EFF39A
:104B300010807047EFF310807047EFF310807047DC
:104B4000EFF310807047EFF31080704782B08DF85C
:104B500007009DF807300BB900BEFDE702B07047B3
:104B600082B08DF807009DF807300BB900BEFDE755
:104B700002B070477BB972B90029BEBF00204FF068
:104B8000004106E008BF00281CBF6FF000414FF055
:104B9000FF3000F0C3B9ADF1080C6DE904CE002977
:104BA00009DB002B1ADB00F04DF8DDF804E0DDE94D
:104BB000022304B07047404261EB4101002B1BDB34
:104BC00000F040F8DDF804E0DDE9022304B04042E3
:104BD00061EB4101524263EB43037047524263EB86
:104BE000430300F02FF8DDF804E0DDE9022304B010
:104BF000404261EB41017047524263EB430300F0D6
:104C000021F8DDF804E0DDE9022304B0524263EB51
:104C10004303704753B94AB9002908BF00281CBF95
:104C20004FF0FF314FF0FF3000F078B9ADF1080CD4
:104C30006DE904CE00F006F8DDF804E0DDE90223BA
:104C400004B070472DE9F047089D0E4604460F4614
:104C5000002B4AD18A42944665D9B2FA82F242B117
:104C6000C2F12003974020FA03F30CFA02FC1F4321
:104C700094404FEA1C4E1FFA8CF6B7FBFEF1230C52
:104C80000EFB117743EA074301FB06F098420AD96D
:104C90001CEB030301F1FF3780F02081984240F2C2
:104CA0001D81023963441B1AA4B2B3FBFEF00EFB54
:104CB000103344EA034400FB06F6A6420AD91CEB73
:104CC000040400F1FF3380F00B81A64240F208811A
:104CD0006444023840EA0140A41B00211DB1D440C5
:104CE0000023C5E90043BDE8F0878B4208D9002DB9
:104CF00000F0F1800021C5E900060846BDE8F08714
:104D0000B3FA83F100294AD1B34202D3824200F2BE
:104D10000081841A66EB030201201746002DE2D0C1
:104D2000C5E90047DFE702B9FFDEB2FA82F2002AE6
:104D300040F09480A1EB0C034FEA1C471FFA8CFE55
:104D40000121B3FBF7F607FB1630230C43EA0043BF
:104D50000EFB06F0984208D91CEB030306F1FF385E
:104D600002D2984200F2D28046461B1AA4B2B3FB8C
:104D7000F7F007FB103344EA03440EFB00FEA645A0
:104D800008D91CEB040400F1FF3302D2A64500F25F
:104D9000BA801846A4EB0E0440EA06409EE7C1F133
:104DA00020078B4022FA07FC4CEA030C06FA01FEAE
:104DB00020FA07F426FA07F344EA0E0400FA01F891
:104DC0004FEA1C404FEA1449B3FBF0FE1FFA8CF681
:104DD00000FB1E3349EA03430EFB06F9994502FA2C
:104DE00001F20BD91CEB03030EF1FF3A80F089802E
:104DF000994540F28680AEF1020E6344A3EB0909A7
:104E0000A4B2B9FBF0F300FB139944EA094403FB95
:104E100006F6A64208D91CEB040403F1FF306CD25D
:104E2000A6426AD9023B644443EA0E40A41BA0FB9D
:104E300002E6B4427346B14656D353D0002D6AD031
:104E4000B8EB030264EB090422FA01F304FA07F752
:104E50001F43CC40C5E90074002144E7C2F12001A2
:104E600020FA01F30CFA02FC26FA01F196403343D2
:104E70004FEA1C471FFA8CFEB1FBF7F007FB101638
:104E8000190C41EA064100FB0EF68E4204FA02F4C8
:104E900008D91CEB010100F1FF3830D28E422ED927
:104EA00002386144891B9BB2B1FBF7F607FB161170
:104EB00043EA014306FB0EF1994208D91CEB0303B8
:104EC00006F1FF3817D2994215D9023E63445B1AA6
:104ED00046EA004135E72946284604E73946E2E636
:104EE0001846F7E6F045A9D2BEEB020366EB0C06C6
:104EF0000138B146A2E74646E9E7034694E7404653
:104F0000D0E7D6467AE76444023843E7023E63447A
:104F10002BE7084602E72946E5E600BF704700BFD9
:104F2000884210B501EB020402D98442234607D817
:104F3000431EA14208D011F8012B03F8012FF8E716
:104F4000024401468A4200D110BD13F8014D02F817
:104F5000014DF7E702440346934200D1704703F83E
:104F6000011BF9E708B52DED028BB0EE408A00F089
:104F70002FF8144B93F90030013314D0B4EE488A63
:104F8000F1EE10FA0FD6B5EEC08AF1EE10FA0ADC97
:104F9000B5EE408AF1EE10FA08D100F011F92223A3
:104FA0009FED090A0360BDEC028B08BD00F008F913
:104FB000BDEC028B21230360BDE80840034800F0EC
:104FC000F9B800BF981D4020000080FF90624100AA
:104FD00010EE103A33F0004206D19FED667ADFED15
:104FE000667A87EE270A7047002B02DA30EE407AA5
:104FF000F5E7B3F1FF4F02DB30EE000A7047B3F57F
:10500000000FB8BFDFED5D7A5D48BEBF60EE277A66
:105010006FF0180117EE903A4FEAE352C3F316030C
:105020001844A8BF00217F3A0A4400F4000181F02F
:105030007E51194300EE101A524902EBD05203F18F
:105040000F00F7EE007A014030EE670A89BBB5EE3B
:10505000400AF1EE10FA0FD1002A00F0878007EE27
:10506000902A9FED490A9FED497AF8EEE77A27EEFC
:10507000800AA7EE870A7047DFED456AF6EE007AF0
:10508000E0EE667A20EE007A27EE277A12B930EE4B
:10509000470A704707EE902ADFED3B6AF8EEE77AA1
:1050A000A7EEE67A37EE400A9FED387A97EE870A48
:1050B0007047F0EE007A70EE277ADFED365ADFEDBA
:1050C000364A364980EE276A1944C3F5571303F56B
:1050D00022730B43002B07EE902A26EE065AF8EEB9
:1050E000E76A25EE057ADFED2E7AE7EE257ADFED29
:1050F0002D5AE7EE875ADFED2C7AE7EE247ADFEDC2
:105100002B4AE7EE874ADFED2A7AE4EE877A67EEEC
:10511000857AE5EE877A1ADDB6EE007A20EE077A18
:1051200027EE007A77EE877A67EE867A12B937EE45
:10513000677AACE79FED146AE6EE867A37EE677A17
:1051400037EE400ADFED117A96EEA70A704770EE4F
:10515000677A67EE867A12B930EE670A70479FED7C
:105160000A7AE6EEC77A37EEC00AEBE79FED020A4D
:10517000704700BF000000CC000000000000004CA1
:1051800020FB4A00F0FF7F00D1F717378071313FD5
:10519000ABAAAA3E4FD01C3E9788173E305CCFFF8B
:1051A000298E633ECDCCCC3E25333A3E2549923EF6
:1051B000ABAA2A3F9FED010A704700BF0000C07FE5
:1051C000014B1868704700BF9C1D4020164A4FF4E1
:1051D000D27303FB00231B7B10B51BBB134B144C7A
:1051E00053F82030D3F8A033C3F34173E35C4FF49A
:1051F000D27489B204FB00225268012A4FF6FF7272
:1052000015BFC3F10F03C3F110039A409A401BBFAF
:10521000DBB2C2F30E0201EA020001EA0200184109
:1052200080B210BD0F23E2E71000432094794100C3
:105230001C6241002DE9F04F91B09946454B044660
:105240000BAE01920D4603F1100E3246186808337A
:1052500053F8041CB4467345ACE803006646F5D128
:105260001B882D044FF00008ACF8003005F44035E1
:10527000394B53F8246006F580731436039345F4D4
:10528000002345460293062303FB04230593334B77
:105290001B5D0693069B434503D8284611B0BDE825
:1052A000F08F4FEA48134FF0000ADBB2049304EB8F
:1052B00044030793059B33F81830534503D808F18E
:1052C00001080436E6E7049B07995344C3F34212EE
:1052D0005FFA83FB03F01F030A44214951F822209F
:1052E00022FA03F3DB0732D50FFA8BF3039A52F855
:1052F0002370029A07F430239A4228D1019B33B1DC
:1053000039462046FFF762FF019B23F81500B9F1EB
:10531000000F14D00623394620466B4309EB0302E5
:10532000CDE90823FFF752FF089A099BC7F3804194
:10533000908009F803B0C7F3C04391705370012304
:10534000013503FA0AF333601A9B9D42A5D20AF194
:10535000010AAFE72062410094794100C47941001D
:10536000A079410000B100477047084B084A53F844
:105370002030125CA43301EB8202914200D17047CD
:1053800051F8040B43F8040BF7E700BF9479410090
:10539000C4794100074B084A53F82030125CB433FB
:1053A00001EB8202914200D1704751F8040B43F89F
:1053B000040BF7E794794100C47941002DE9F041ED
:1053C0000F469846104B1546069E53F8204008F0AD
:1053D000A5FD012F08D0022F0ED08FB9226846EA12
:1053E000080322EA030305E0236823EA0503236098
:1053F00023683343236003E0236835431D4325605E
:10540000BDE8F04108F0A4BD947941008A4B2DE934
:10541000F04F53F820404FF4D273884F91B043437C
:10542000256A0646626B17F803A0BAF1000F00F078
:105430000F81236A2269D2061BD5D80619D50C2202
:105440007F49804B02FB0611002213F806E004F1AD
:1054500014039446724566D3BCF1000F09D01023A3
:1054600023614FF4D27303FB0673D3F89801FFF75F
:1054700079FF2369D9070BD5EA0709D501232361F1
:105480004FF4D27303FB0673D3F89001FFF76AFF62
:1054900023695B070BD5680709D5042323614FF403
:1054A000D27303FB0677D7F89401FFF75BFF664BD7
:1054B0000BAA03F1100C17461868083353F8041CA4
:1054C0001546634503C52A46F6D11B884FF00009EF
:1054D00004F53C782B80CB46236A226913404A4668
:1054E00003F00A030193062303FB06730693554B4F
:1054F0009B5D08931FFA89F30899994240F29180C5
:105500005B019BB20793A8F537730293A8F5337339
:105510000593A8F110030493002300934FF4D27372
:10552000734303936FE0D3F8108051F8040BD3F862
:10553000009000EA090018EA000F01D0D446186074
:105540000132043386E7079901270B44029998B288
:1055500003F01F039F40059B1B6809680F4210D092
:105560001F420ED0019B63B1029B039A1F60334B15
:105570001344D3F89C31002B51D0099098475246E0
:105580000998049B1968236BD4F834C0D8F80050EC
:105590003D4033D011EA070530D06921274D01FB8A
:1055A0000601043155F821E01FFA8EF149002CFA6A
:1055B00001F515F0010518BF23FA01F501F101010C
:1055C0002CFA01FC18BF05F001051CF0010F1FBFEC
:1055D000CB405B0003F002031D437DB11B4B0399DD
:1055E00003EA4E03C8F800709D40144B0B44D3F8F7
:1055F000A0311BB1294609929847099A009B4BEAB2
:10560000050B013300930699BDF8003031F81910ED
:10561000994298D809F1010908F104086AE752464D
:10562000AFE70AB1019B2361BBF1000F01D0C4F8C1
:1056300030B011B0BDE8F08F9479410010004320E4
:10564000A0794100C479410020624100FEFF0100C1
:105650002369D90603D5EB0601D5102323612369FD
:10566000DF0703D5E80701D5012323612369590723
:1056700003D56B0701D50423236123699F0703D555
:10568000A80701D5022323612369190703D52B0736
:1056900001D508232361236B134000D02363084BFB
:1056A00004F53C740022985DD3B29842C1D92368B6
:1056B00054F8101C0B4000D0236001320434F3E78F
:1056C000C479410012B1012A01D070474DE661E66C
:1056D000F8B5134B02F01F0754090D4653F820602C
:1056E00011B101290ED0F8BD08F07CFCA4360123CD
:1056F00056F82420BB40134346F82430BDE8F84058
:1057000008F08ABCB43608F003FDBD4056F82430DA
:105710001D4346F82450BDE8F84008F013BD00BF13
:1057200094794100F8B5144B02F01F0754090E4656
:1057300053F8205011B101290FD0F8BD08F084FCB6
:10574000A435012255F82430BA4023EA020345F873
:105750002430BDE8F84008F091BCB43508F00AFDEB
:10576000BE4055F8243023EA060345F82430BDE84E
:10577000F84008F019BD00BF9479410038B50B4BD3
:105780000D4653F8204063685B070DD108F0E6FE34
:10579000D4F8A03323F0604343EA4573C4F8A03340
:1057A000BDE8384008F0F4BE38BD00BF9479410030
:1057B00038B50D460A4B53F8204008F0C1F82DB11A
:1057C000012D08D0BDE8384008F0D4B8236843F074
:1057D00080732360F6E7236843F48013F9E700BF82
:1057E00094794100164B10B553F8204063689A0C29
:1057F000D90B02F0400201F480710A43590B01F009
:1058000080010A43991601F020010A430D4951F81D
:10581000201011F0040118BFD8094FEA431318BF34
:1058200000F4007003F4806318BF0243206913433F
:1058300019B900F00F00184310BD00F01F00FAE77F
:1058400094794100C8794100064A074B52F820205C
:1058500053F82030520754BF01F00F0101F01F012F
:1058600019617047C87941009479410013B5144615
:105870001A4600230094FFF7DDFC02B010BD07B507
:1058800000920022FFF7D6FC03B05DF804FB38B5A8
:105890000B4B0C4653F8205005F5807353F821103C
:1058A00011F400230AD0FFF791FC0123620904F0F0
:1058B0001F041435A34045F8223038BD1846FCE7D4
:1058C000947941002DE9F0471C4600230D46164609
:1058D000A3808246637001F01F08A370124B2170F1
:1058E00053F8209008F02CF809F5807309F1140999
:1058F00053F8257008F03EF86D0987EA064616F45D
:10590000403F0AD1C7F3C043394650466370C7F3DE
:105910008043A370FFF75AFCA080012303FA08F329
:1059200049F82530BDE8F08794794100F7B50021AA
:105930000446164807F064FC0646002007F04CFCBD
:10594000134B019053F8247000247D6808F056F939
:105950003B6805F0070523F001033B6008F068F998
:105960006DB1B44202D3022003B0F0BD7D680021C6
:1059700001A807F037FC05F007050444F0E7B4423E
:1059800034BF002001204000EEE700BFA0860100E8
:1059900094794100F7B500210446164807F030FC21
:1059A0000646002007F018FC134B019053F82470B2
:1059B00000247D6808F054F93B6805F0070543F0C2
:1059C00001033B6008F066F9012D0DD0B44202D30B
:1059D000022003B0F0BD7D68002101A807F002FCA1
:1059E00005F007050444EFE7B44234BF002001206E
:1059F0004000EEE7A0860100947941003E4B2DE97E
:105A0000F341054653F82040FFF7C4FFC0BB08F040
:105A1000C3F82268394B4FF4D2711A60384A2368B0
:105A200001FB052223F026039268520002F00602D1
:105A30001343236008F0CAF82846FFF777FFF8B948
:105A400008F05AFDD4F8A03323F0C05323F07103BB
:105A500043F07003C4F8A033D4F8A03343F0080334
:105A6000C4F8A033D4F8B43323F40043C4F8B433F7
:105A7000D4F8A03343F00103C4F8A03308F056FD76
:105A800000212048002607F0BBFB0746002007F056
:105A9000A3FB0190D4F8A0331B040AD5B74202D867
:105AA0004FF002080BE0002101A807F09BFB064421
:105AB000F0E7B742F4D9D4F8A033C3F3C0080F4BD2
:105AC00028461F68FFF766FF064608F065F823685A
:105AD00007F0260723F006031F43276008F076F837
:105AE00036B92846FFF722FF002814BF064646466F
:105AF000304602B0BDE8F081947941007C05402039
:105B000010004320A086010038B50C4B53F820301C
:105B10005B0754BF01F00F0401F01F041F21FFF7C2
:105B200093FE074B53F8205008F050FC2B6A234398
:105B30002B62BDE8384008F063BC00BFC879410063
:105B40009479410038B50B4B53F820305B070A4B72
:105B500053F8205054BF01F00F0401F01F0408F067
:105B600067FC2B6A23EA04032B62BDE8384008F087
:105B700079BC00BFC8794100947941002DE9F0411A
:105B80001746144B01F01F064C09FA0753F8205032
:105B90000CD508F085FB05F12408012358F82410E2
:105BA000B3400B4348F8243008F094FBBB070ED5F4
:105BB00008F012FB05F53875012355F82420B34091
:105BC000134345F82430BDE8F04108F01FBBBDE8A1
:105BD000F08100BF947941002DE9F0411646164B43
:105BE00001F01F084C09F20753F820500ED508F0B9
:105BF00089FB05F12407012157F8242001FA08F157
:105C000022EA010247F8242008F096FBB30710D5DA
:105C100008F014FB05F53875012255F8243002FA16
:105C200008F223EA020345F82430BDE8F04108F009
:105C30001FBBBDE8F08100BF94794100074B084AC3
:105C400053F82030125C94330A44914200D17047DB
:105C500011F8010B43F8040BF7E700BF94794100FA
:105C6000C47941000B4B70B553F8205014460E46D2
:105C700008F05AF864022B6804F4C06423F46063EB
:105C800044EAC6212B602B680B432B60BDE87040B3
:105C900008F064B8947941001D4B2DE9F0410746A6
:105CA0000D4653F820800E68FFF774FE044660BB73
:105CB00008F008F8D8F80030760023F0060306F064
:105CC00006061E43C8F8006008F016F83846FFF7CD
:105CD0002DFE0446C8B908F0FDFED8F89C332A7999
:105CE00023F4E0230AB143F44033C8F89C3308F0AE
:105CF0000BFF697A3846EA68FFF7B4FF2B7A691D13
:105D00003846C8F8C830FFF799FF2046BDE8F08153
:105D100094794100064B10B553F8204008F036F84E
:105D2000236843F040032360BDE8104008F048B802
:105D300094794100F7B505460C461B4800211646EC
:105D400007F05EFA0746002007F046FA174B01906D
:105D500053F8255008F04CF81EB92B6823F08073D7
:105D60002B602B6843F080032B6008F05BF8C4B114
:105D70006E68002406F080766EB1BC4202D3022029
:105D800003B0F0BD6E68002101A807F02BFA06F001
:105D900080760444F0E7BC4234BF0020012040007C
:105DA000EEE72046ECE700BFA086010094794100B1
:105DB000114B53F820309B0770B50D46144619D58A
:105DC0000E4B53F8206008F0FBFB012DD6F8803015
:105DD0000AD0022D0BD00DB964F34103C6F8803010
:105DE000BDE8704008F006BC64F3C303F6E764F353
:105DF0004513F3E770BD00BFC879410094794100B5
:105E000038B50E4B0C4653F820309B0714D50C4B7D
:105E100053F8205008F06AFC6109012305F184025F
:105E200004F01F0452F82100A340034342F821303C
:105E3000BDE8384008F074BC38BD00BFC8794100E7
:105E40009479410038B50E4B0C4653F820309B072F
:105E500015D50C4B53F8205008F07AFC600901214D
:105E600005F1840304F01F0453F82020A14022EA26
:105E7000010243F82020BDE8384008F083BC38BD5B
:105E8000C8794100947941000A4B53F820309B07B0
:105E900010B50ED5084B53F8204008F0C3FBD4F8DA
:105EA000803043F00103C4F88030BDE8104008F0B2
:105EB000D3BB10BDC8794100947941000A4B53F817
:105EC00020309B0710B50ED5084B53F8204008F042
:105ED000DBFBD4F8803023F00103C4F88030BDE848
:105EE000104008F0EBBB10BDC87941009479410027
:105EF000064B10B553F8204008F05CFC236C43F0CF
:105F000001032364BDE8104008F06EBC94794100A1
:105F1000064B10B553F8204008F07EFC236C23F0AC
:105F200001032364BDE8104008F090BC947941005F
:105F300038B50B4B0C4653F8205008F0D1FC6109E2
:105F4000012305F1440204F01F0452F82100A3408C
:105F5000034342F82130BDE8384008F0DBBC00BF05
:105F60009479410038B50B4B0C4653F8205008F09B
:105F7000E9FC6009012105F1440304F01F0453F812
:105F80002020A14022EA010243F82020BDE8384049
:105F900008F0F2BC947941002DE9F843104B044617
:105FA0000027DFF8448053F820600E4B443613F886
:105FB0000090FDB2A94501D8BDE8F88308F0F4FCD3
:105FC00056F8253004EB440201372A4458F82220C1
:105FD00023EA020346F8253008F000FDE9E700BF98
:105FE00094794100C4794100A079410038B50A4B49
:105FF0000C4653F8205008F041FC64002B6C04F070
:10600000020423F002032B642B6C1C432C64BDE8B8
:10601000384008F04DBC00BF94794100F8B5264BDC
:106020000C464FF4D271164653F82050234BB2F869
:1060300004C001FB0033578805F160021B7B6BBB7A
:10604000D5F8A0331E49C3F341731E48CB5C012130
:10605000C3F10F03DBB299400CFA03FC07FA03F318
:106060000139C3F30E0341EA0C0100EA01410B437D
:1060700042F82430640008F077F90122611CF079BD
:106080006B6B02FA01F180B10B43B179A24079B197
:1060900013436B63BDE8F84008F080B9094BC7F3C0
:1060A0000E0703EA0C433B43E2E723EA0103ECE774
:1060B00023EA0203EDE700BF94794100100043207A
:1060C0001C6241000000FF7FBD4B00222DE9F04F14
:1060D00053F8205091B00C4601210646FFF72AFEE6
:1060E0002B681F21304623F400332B60FFF7ACFBF5
:1060F000FFF750FC0746002840F0B1812B6822686A
:1061000023F00053520723F0060302F000521A4313
:10611000E368590094F8383001F006011143E26B4E
:1061200021F0200141EA431194F8393021F0004177
:1061300041EAC371930721F0804103F080430B4390
:10614000A04951F8269019F0040F08D0A16923F452
:106150004033012900F08781022900F08781E1693D
:10616000012900F08681022900F08681216A23F04E
:1061700080638F1E7842784143EA806359B194F876
:10618000241023F0006343EAC16394F8251023F040
:10619000007343EA416394F8431023F40063DFF88B
:1061A0003082304643EAC123616C490223F4C06364
:1061B00001F4C06119434FF4D27303FB06832960D5
:1061C0005A60FFF7B3FB0746002840F04881A369F7
:1061D000022B03D12B6843F480332B60D5F89C331A
:1061E000227D23F4E0230AB143F44033C5F89C3305
:1061F00004F126013046FFF721FD94F8423019F0F2
:10620000010FC5F8C83003D0B4F84030C5F8C43029
:1062100004F154013046FFF7A8F804F1600130465C
:10622000FFF7B8F861683046FFF7A8FAA36FB3B17B
:1062300094F874309BB14FF00009A36F5FFA89F1B5
:1062400009F10109304603EBC10213F83110FFF7E1
:10625000E5FE94F874205FFA89F39A42EDD82B6C2E
:1062600023F003032B6494F84C3043B1236D2A6C64
:106270005B0003F00203134343F001032B64206F20
:10628000002800F0A78094F86C300193002B00F0F8
:10629000A18006EB4602002305F52C7C02926922C0
:1062A0007243CDE90433CDE90633CDE90833CDE9B6
:1062B0000A33CDE90C33CDE90E33039202784FF067
:1062C000FF0902F018014FEAD20E09FA01FA029909
:1062D00001EB52193C4951F829901AEA090F1CD0D8
:1062E00002F007090FFA8EFE4FF0030A90F802B091
:1062F0004FEA89095CF82E100AFA09FA21EA0A0A1B
:106300000BF0030101FA09F141EA0A014CF82E10E1
:1063100003991144043148F821B04FEA521E01217B
:1063200002F01F020133063001FA02F210F8021CDB
:10633000002910A901EB8E0E14BF91464FF0000901
:106340005EF8301C41EA09014EF8301C10F8031CBD
:1063500000295EF8241C14BF91464FF0000941EA61
:1063600009014EF8241C10F8011C00295EF8181CC5
:1063700014BF91464FF0000941EA09014EF8181C7C
:1063800010F8051C00295EF80C1C08BF0022114300
:10639000DAB24EF80C1C019991428FD80B4B0DF1DB
:1063A000100E0DF11C0C0AA813F806A00DA905F19A
:1063B000240300225FFA82F9CA4560D80AE000BFD0
:1063C00094794100C8794100A0794100C479410025
:1063D00010004320D5F880300021304623F001031F
:1063E000C5F8803094F82930D5F880201343E26A4C
:1063F000C5F88030FFF7DCFC226B01213046FFF747
:10640000D7FC626B02213046FFF7D2FC4FF4D27208
:10641000E16F724308EB0203C3F89011D4F88010C7
:10642000C3F89411D4F88410C3F89811D4F88810E4
:10643000C3F89C11D4F88C10C3F8A011217A1973F9
:1064400021699960B4F84A10164B03EA014394F8A5
:1064500048100B43C5F8A833012308F8023038462A
:1064600011B0BDE8F08F43F4003378E643F44033D5
:1064700075E643F4800379E643F4C00376E65EF8FC
:10648000049B0132043343F8049C5CF8049BC3F87A
:10649000B89250F8049BC3F81C9051F8049BC3F8C1
:1064A0005C9087E70000FF03F0B50123A5B000244E
:1064B000054604931621404B00941E5C0DF1260006
:1064C000039432468DF814400894ADF82440CDE989
:1064D0000644FEF73FFD2146B2000BA8FEF73AFD49
:1064E000694628468DF82940ADF8384011948DF85A
:1064F0004840ADF84A408DF84C4014948DF86C40FB
:106500001C948DF874401E942394CDE90F44CDE97A
:106510001F44CDE92144FFF7D7FD00283DD1274B8B
:10652000014604464FF0FF3753F8253003F12402AB
:106530008E4234D803F5387200244FF0FF37C1B2D1
:106540008E4234D81E4A1F491A665A669A66DA661F
:106550000C226A438A58D1B211B10021C3F8B0129B
:1065600012F47F4F02D00021C3F8B41212F47F0F4F
:106570004FF0000401D0C3F8B84228465C631F21E5
:10658000FFF762F90121FFF7F9F84FF4D2730E4AD1
:1065900028466B43D454FFF7FDF925B0F0BD1460D5
:1065A000013142F8107C0432D461D465C0E7146034
:1065B000013017610432C2E7C47941009479410087
:1065C0000000FF7FA07941001000432038B50D4B3B
:1065D0000D4653F8204063685B0711D107F03AFC81
:1065E0002DB1012D08D0BDE8384007F04DBC23681F
:1065F00023F000532360F6E7236843F00053F9E7E4
:1066000038BD00BF947941001A4B70B553F8204053
:1066100005460E4607F050FC236823F40033236040
:1066200007F064FC2846FFF7B5F910BB124B53F88E
:1066300025305B0714D507F03FFC012E06D0022E53
:1066400013D05EB9236823F4403306E0236823F4B3
:1066500080332360236843F40033236007F046FC53
:106660002846BDE87040FFF761B9236843F4403322
:10667000F3E770BD94794100C879410007B5032A5A
:106680000BD8DFE802F0020D10174FF00063009303
:106690004FF080620023FEF791FE03B05DF804FB2B
:1066A0004FF00073F3E74FF0206300934FF08063E7
:1066B0001A46F0E74FF4800300934FF40013F7E716
:1066C000044B53F82000044B03EA01410A43C0F88D
:1066D000A8237047947941000000FF03034B53F84F
:1066E000203003F5807303EB8100704794794100FB
:1066F0000020FEF78BBE0120FEF788BE0220FEF7C9
:1067000085BE0000024B1B681B6803B11847704729
:10671000A8184020024B1B685B6803B118477047FC
:10672000A8184020A0F580030144B3F5800F08D2DB
:10673000A1F580000138B0F5800F2CBF00200120AA
:10674000704700F17043B3F5003F05D201F170408E
:106750000138B0F5003FF0E700F16540B0F5005FAB
:1067600005D201F165400138B0F5005FE5E7002092
:106770007047054A536823F04E6323F440231B0CF3
:106780001B045360704700BF00C02E40074B00221F
:10679000C3F800211A6842F480721A601A68D205A0
:1067A000FCD51A6822F480721A60704700C02E402F
:1067B00008B50DF06DF8084B1A6822F001021A6056
:1067C0005A681204FCD51A6822F498721A600DF007
:1067D00079F8002008BD00BF00C02E400E490F4AC6
:1067E0004B6813400E4A0FD04968490052BF02213E
:1067F0000C210020116058BF0846074A51680B4021
:10680000536003461846704718B9062313600223E5
:10681000F8E71360F6E700BF00C02E4000001073D9
:106820000C1E40200F280E4B03D8D3F890330B607A
:106830007047B0F5047F02D1D3F89833F7E71038EA
:10684000C0F3C71200F07F005F2804D8E63203EBE4
:1068500082035B68EBE7E03253F82230E7E700BFE2
:10686000008026400F2810B50AD820F00302124BF2
:10687000134400F003001B68C000C3400B7010BD40
:10688000B0F5047F15D01038C0F3C71200F07F00B8
:106890005F2807D8C008094B120120F003042344E5
:1068A000D2B2E5E76038064B520120F003042344DE
:1068B000F6E7044BDDE700BF408426408484264091
:1068C000C0832640808426400023B0F5047F37B57E
:1068D00004460D468DF80330019302D9002003B021
:1068E00030BD01A9FFF79EFF094B019A1B681A42B0
:1068F000F4D020460DF10301FFF7B4FF9DF803002B
:10690000FF28EBD0411B18BF01214800E7E700BF7B
:10691000B0184020034B1A6922F00E021A611A695E
:106920001A61704700802640014BC3F8000370478E
:1069300000802640024A136943F001031361704747
:1069400000802640014B1870704700BF081E402091
:10695000A0F580020146B2F5800F10B500F1654444
:1069600015D300F17043B3F5003F10D3B4F5005FC9
:106970002CBF00200120FDF775FFB4F5005F0ED39A
:1069800001F17041B1F5003F03D2480B10BD012069
:10699000F1E7B2F5800F05D2500B1030F6E74FF457
:1069A0000470F3E740F21120F0E700F16543B3F51E
:1069B000005F15D300F17043B3F5003F12D3A0F58B
:1069C0008003B3F5800F0FD2B0F5A00F0ED3B0F552
:1069D000C00F0DD3B0F5E00F34BF02200320704785
:1069E0000920704708207047FF207047002070473B
:1069F0000120704710B504460CF07CFF214A0F2C93
:106A00000FD8214B1268D3F890131143C3F8901399
:106A1000D3F850130A43C3F85023BDE810400CF0DC
:106A200083BFB4F5047F12680BD1174BD3F89813CA
:106A30001143C3F89813D3F858130A43C3F85823E3
:106A4000EBE7103CE30904F07F049B005F2C03F1AB
:106A5000804303F51A130AD8D3F89C131143C3F8E3
:106A60009C13D3F85C130A43C3F85C23D5E7D3F82F
:106A700080131143C3F88013D3F840130A43C3F8BB
:106A80004023CAE7B0184020008026400F2819D9BB
:106A9000B0F5047F18D0A0F1100303F07F035F2B43
:106AA00094BFDB08603B144A0F28144913604FF071
:106AB000010202FA03F2124B1A6007D8D1F8500310
:106AC000104070470346EEE70023ECE7B0F5047F83
:106AD00002D1D1F85803F3E7A0F11003D80903F06D
:106AE0007F035F2B04D8D63001EB80014868E7E7CD
:106AF000D03051F82000E3E7941840200080264071
:106B0000B0184020B0F5047F024608B58CBF0020C5
:106B10000120FDF7A7FEB2F5047F07D81046FFF766
:106B2000B5FF00280CBF09200A2008BD0420FCE79F
:106B3000B0F5047F37B505468CBF002001200191D8
:106B4000FDF790FE2846FFF7DDFF042804460AD033
:106B50000A280BD001992846FFF7B6FE044610B963
:106B60002846FFF747FF204603B030BD0024FAE770
:106B7000164B0F281A686FEA020206D81449D1F89A
:106B800050331340C1F850337047B0F5047F06D13D
:106B90000F49D1F858331340C1F8583370471038B3
:106BA000C30900F07F009B005F2803F1804303F5D9
:106BB0001A1305D8D3F85C130A40C3F85C23704756
:106BC000D3F840130A40C3F840237047B018402060
:106BD00000802640B0F5047F37B505468CBF002005
:106BE00001200191FDF73EFE2846FFF78BFF0428A8
:106BF00004460ED009280FD001992846FFF764FEFD
:106C0000044630B90CF0A8FE2846FFF7B1FF0CF09F
:106C1000BDFE204603B030BD0024FAE710B504469F
:106C2000003818BF0120FDF71DFEFFF783FEFFF7B8
:106C300071FEFFF7BDFD074B1A6822F480521A60FF
:106C40001A6822F400421A60FFF793FD024B1C60A1
:106C500010BD00BF00C02E40A8184020A8E5074B7B
:106C60005A68120408D5586800F45030B0F58040D6
:106C700018BF0120400070470120704700C02E401F
:106C8000B0F5047F0246F8B58CBF00200120FDF767
:106C9000E9FD0F2A0F4635D802F500456D03254B57
:106CA0000021B2F5047F19603DD8234C266816F404
:106CB000887631D1D4F894308B422DDB1046FFF723
:106CC00021FF092828D10CF079FEFFF752FD1B4B5C
:106CD0001B4A1D60C2F800532368C3F307439F4259
:106CE000F8D10023C4F80031236843F01003236077
:106CF000144B1B789BB1FFF705FD236843F001039C
:106D000023600CE0B2F5047F02D202F5F875C5E706
:106D10000DD14FF0D855C2E702260CF04FFE0CF013
:106D200067FE3046F8BD04260CF048FEF7E704265F
:106D3000F7E700BF9818402000C02E409C18402064
:106D400000802640081E402010B5FFF788FF01286C
:106D5000044614D00CF0C8FE0A4B1A6822F0010257
:106D60001A601A6822F480721A600CF0D7FE064B83
:106D7000064A04211B680120126800F0A6FA20468A
:106D800010BD00BF00C02E40A0184020A418402015
:106D90002DE9F0410646081E0C46154618BF012095
:106DA000DFF89880FDF75EFD101E18BF0120FDF78B
:106DB00059FD3046FFF7B6FCFDF754FD32B9042308
:106DC000C8F80030D8F80000BDE8F081002CF6D0FB
:106DD0000120234632460421C8F8000000F075FA6D
:106DE000154B00221A600CF0E3FEFFF7C2FCFFF720
:106DF00089FC45EA06039A0711D1032C0FD93368A1
:106E000004272B60FFF786FC0120FFF7E7FC18B989
:106E1000E41B3E443D44E8D10CF0E4FED2E7DB073E
:106E200005D4012C03D0338802272B80EAE733787E
:106E300001272B70E6E700BF981840200C1E402069
:106E40002DE9F8430446081E0D46164618BF0120DA
:106E5000444FFDF707FD2046FFF764FCFDF702FDF8
:106E600025B904233B603868BDE8F8833E4B002217
:106E7000012004211A602B462246386000F025FAD2
:106E80000CF064FE002E3CD14FF6FF78FFF771FC4A
:106E9000FFF738FCA60751D1032D4FD926684FF0D4
:106EA0000409701C46424641FFF734FC3046FFF7A8
:106EB00095FC00283FD1B5EB09054C44E6D13AE0FA
:106EC000DB070DD4012D0BD0B4F800804FF0020980
:106ED0003388A8EB030EDEF1000848EB0E0823E030
:106EE00094F800804FF001093378A8EB030CDCF133
:106EF000000848EB0C0817E0B5EB09054C444E447C
:106F000019D0FFF736FCFFF7FDFB44EA06039907AB
:106F1000D6D1032DD4D920684FF004093368C21AA2
:106F2000D2F1000848EB0208FFF7F4FB4046FFF7F8
:106F300055FC0028E0D00CF023FE94E7E10709D4CB
:106F4000012D07D026884FF00209A6EB0802564211
:106F50005641A9E726784FF00109A6F1FF035E42EA
:106F60005E41A1E70C1E40209818402010B5FFF7A5
:106F700076FE012804461CD00CF052FD0E4B1A6818
:106F800022F001021A601A6822F010021A600CF056
:106F900061FD74B9094B22464FF400511868FFF7A0
:106FA0004FFF044628B10C2803D00B280CBF044621
:106FB0000524204610BD00BF00C02E409C18402074
:106FC0002DE9FF4104460F469846FFF7ABFBFDF75E
:106FD00049FC04F07F05644B164611221D60634B8B
:106FE0001A600022624B1A60FDF73CFC2046FFF756
:106FF000AFFC44EA07035B076FD13D44802D6CD89A
:10700000002F6AD0002E68D05A4B1A6812F488728A
:10701000019266D1D3F89430002B62DBFFF772FD4A
:1070200009285ED1019A39462046FFF709FF054637
:1070300078B10C280DD00B2808D005250CF022FDC6
:107040000CF03AFD284604B0BDE8F0810CF01AFDC2
:10705000F6E70CF017FD4849FFF78BFB454AC1F8EE
:1070600000431368C3F307439845F8D10DB10C2DC5
:10707000E6D1424B01201C60C4F38404404B1F60E6
:10708000FDF7F0FB16F0030F06F108033E442CD188
:10709000A20053F8081CB34204F1020402F180423A
:1070A00002F53B12C2F8001153F8041CC2F8041197
:1070B00003D01E2C03F10803EAD92E4C236843F4B5
:1070C000807323602F4B1B78002BB9D0FFF71AFB7E
:1070D000236843F001032360B2E704250CF0D2FCDF
:1070E000AEE702250CF0CEFCAAE713F8082CB34259
:1070F00013F8071C0392039A42EA012213F8061CB4
:107100000392039A42EA014213F8051C0392039A80
:1071100042EA016203924FEA8402039904F10204F5
:1071200002F1804202F53B12C2F8001113F8041C70
:1071300013F8030C0391039941EA002113F8020CA0
:107140000391039941EA004113F8010C039103995B
:1071500041EA006103910399C2F80411ADD01E2CDD
:1071600003F10803C1D9A8E7AC18402090184020CB
:107170009818402000C02E4000802640A4184020CF
:10718000A0184020081E40201F4A204B12681B698F
:10719000112A1F4808BF1F4A00EA830004BF126873
:1071A0008018002B07DA13F4002F0CBF4FF0FF30CC
:1071B0004FF0D850704703F0FC73B3F5800F1DD02B
:1071C0000BD8B3F5801F13D0B3F5001F13D0B3F560
:1071D000002F0AD04FF0FF307047B3F5000F10D0EA
:1071E000B3F1807FF6D10138704700F58000704719
:1071F00000F5A000704700F5C000704700F5E00002
:10720000704700F1805070479018402000C02E4019
:10721000F8FF1F00AC184020014B0B221A6070478A
:107220000C1E402038B505460C460BF099FA012D8E
:1072300003D1032C05D1FDF700FC0BF0ABFA0020C5
:1072400038BD042CF9D1FDF705FCF6E738B5054645
:107250000C460BF0B7FA012D03D1032C05D1FDF735
:1072600006FC0BF0C9FA002038BD042CF9D1FDF75B
:107270000FFCF6E738B505460C460BF0D5FA012DA4
:1072800003D1032C05D1FDF7F7FA0BF0E7FA002044
:1072900038BD042CF9D1FDF7FFFAF6E737B50546FE
:1072A0000C4601920BF0F2FA012D019803D1032C48
:1072B00006D1FDF71FFB0BF003FB002003B030BD30
:1072C000042CF8D1FDF71AFBF5E737B505460C4657
:1072D000019200930BF00CFB012DDDE9001003D1AE
:1072E000032C06D1FDF740FB0BF01CFB002003B084
:1072F00030BD042CF8D1FDF751FBF5E773B5054619
:107300000C46069E019200930BF024FB012DDDE953
:10731000001004D1032C07D13246FDF761FB0BF0BE
:1073200033FB002002B070BD042CF8D13246FDF7CB
:107330005EFBF4E770472DE9F047B54D01210446A7
:10734000286001F02DFE2B68002B40F03881E67B91
:10735000B04FDFF8FC82DFF8FC92002E40F036815F
:10736000A67CAD4FDFF8F082DFF8E892002E40F007
:107370003D81A67BA94FDFF8E482DFF8D892002E8A
:1073800040F07C81667BA64FDFF8D482DFF8C492A0
:10739000002E40F084813746DFF89C82DFF8C492EB
:1073A000DFF8B0A2237BBB4200F289812868002568
:1073B000022101F0F5FDE27CEBB29A4200F29181EC
:1073C000984B1D78002D38D10122974F2946284629
:1073D0001A707B689847BB688C208F4F9847934BF7
:1073E00028461B689847924B28461B6898478C4B49
:1073F00028461B6898477B6828469847BB688D4F8E
:107400002846984728463B68984729467B6828467F
:107410009847894B814F28461B6898477B682846C8
:107420009847BB68284698477A4B28465B68984738
:10743000824B294628461B68984701238049E27DF4
:107440009A4200F259810025754FDFF81482DFF867
:107450000492637BAB4200F256810025774FDFF840
:107460000882DFF8F091637DAB4200F25D81002578
:107470006F4FDFF8F881DFF8DC91637CAB4200F2FC
:1074800064810025694FDFF8E881DFF8C891237C2B
:10749000AB4200F26A810025654FDFF8D081DFF84A
:1074A000B491637CAB4200F2708100255B4FDFF842
:1074B000AC81DFF8A091A37BAB4200F2778100257D
:1074C000594FDFF88881DFF88C91A37DAB4200F241
:1074D0007F810025524FDFF88881DFF87891637B48
:1074E000AB4200F2878100254C4FDFF87081DFF856
:1074F0006491A37BAB4200F28E810025464FDFF8FA
:107500005881DFF85091A37CAB4200F296814D4D3B
:1075100001234D4F4FF000088C210420BB70FB70FD
:107520002B6887F8008087F80180984701F060FD9C
:107530002B688C21052098472B688C2106209847C2
:10754000DFF8D09001F0B4FBDFF804A12B684546CA
:10755000DFF820818C2107209847E37BAB4200F2C3
:107560007E813D78002D40F0B481324FDFF80881F4
:10757000DFF8E090237DAB4200F28B812A4D334F40
:10758000DFF8D080A37DB34200F29381204604212E
:10759000BDE8F04701F004BD1C22206C72430136A7
:1075A0008358104403EBC3034B445B7818F8033053
:1075B0001B01FB589847A37DB342EDD8C7E60026D0
:1075C000194FDFF88880DFF88C90F4E7606A013E9D
:1075D00050F8363000EBC60003EBC3034B445B7836
:1075E00018F8033057F833309847B6E6013E206B61
:1075F0000C223301C35800EB061003EBC3034B44CA
:107600005B7818F803305343FB589847AEE600BF49
:1076100044194020F88B41005C8B4100C88B41002D
:107620002C8B410048194020A88B4100088B410059
:107630001C8B4100688B4100788B4100F08B41002E
:10764000B8184020941D4020B4184020A48A41005E
:10765000B88A4100B8854100CC8A4100C28A410005
:10766000EA8A4100E08A4100AE8A4100F48A410082
:10767000FE8A410018834100D68A4100013E28223B
:10768000206A142172438358104403EBC3034B4414
:107690005B7818F803304B43FB5898476FE6013E80
:1076A0001422E06972438358104403EBC3034B4434
:1076B0005B7818F803301B01FB58984768E60C21EB
:1076C000A06901FB07F201378358104403EBC303A1
:1076D00053445B7819F803304B4358F8033098470C
:1076E00060E6616B1801013501EB03130858D3E91B
:1076F000022300F0C6FC5EE6626C52F833208B5425
:107700000133DBB29BE61422E0696A4301358358FA
:10771000104403EBC3034B445B7818F8033007EBCA
:1077200003135B68984794E61822E06B29466A4386
:1077300001358358104403EBC3034B445B7818F8BE
:10774000033057F8233098478DE60C22E06A6A43ED
:1077500001358358104403EBC3034B445B7818F89E
:10776000033057F83330984787E60C22A06A6A4303
:1077700001358358104403EBC3034B445B7818F87E
:10778000033057F82330984781E60C22E06A6A43B9
:1077900001358358104403EBC3034B445B7818F85E
:1077A000033007EBC3035B6898477AE62822206A18
:1077B00014216A4301358358104403EBC3034B443F
:1077C0005B7818F8033001FB03735B68984772E637
:1077D0001C22206C29466A4301358358104403EB70
:1077E000C3034B445B7818F8033007EB03135B6863
:1077F00098476AE61422E0696A43013583581044C9
:1078000003EBC3034B445B7818F8033007EB031317
:107810009B68984763E62822206A14216A43013551
:107820008358104403EBC3034B445B7818F80330D0
:1078300001FB0373DB6898475BE6206B2B010C228E
:10784000C35800EB0510013503EBC3034B445B78D1
:1078500018F8033002FB03735B68984753E6626ACB
:1078600002EBC500436858F82330032B0ED052F8C2
:107870003530194A03EBC30313445B781AF803301D
:1078800009EBC3035B689847013566E601233B704B
:10789000FAE7A06B50F8353000EBC500013503EB7B
:1078A000C3034B445B7818F8033057F833309847DC
:1078B00060E61C22206C724301368358104403EBAF
:1078C000C30343445B78FB5C05EB0313DB68984719
:1078D00058E6BDE8F08700BFB88541002DE9F047C4
:1078E0001F4F002502241F4EDFF88880B378AB427B
:1078F0001CD864BB1C4F2546DFF87C80DFF87C90E9
:10790000DFF868A0F3789D4221D257F8040B0C22CF
:1079100000EBC00353445B7819F8033002FB038388
:107920009B689847012811D00135EBE757F8040B05
:107930000E4B00EBC00213440D4A5B78D35C14225B
:1079400002FB03839B689847012803D1012420464A
:10795000BDE8F087022805F1010508BF0024C5E74E
:1079600014834100B418402010834100B8854100C1
:10797000C28A4100C88B41005C8B4100CC8A410027
:107980002DE9F0412F4D2B682BBBBDE8F0815B6AE0
:1079900003EBC400426856F82220032A0CD153F8A6
:1079A0003430294A03EBC30313445B7818F80330DF
:1079B00007EBC3035B68984701342B68DA7B94427A
:1079C000E5D3224B1B78002BDFD00024204E214F23
:1079D000DFF8748013E000241F4E204FDFF888800A
:1079E000EBE7986B50F8343000EBC400013403EB44
:1079F000C30343445B78FB5C56F8333098472B68ED
:107A00001A7D9442EDD30024154E164FDFF83880CE
:107A10002868837D9C4204D30421BDE8F04101F035
:107A2000BFBA1C22006C624301348358104403EB3C
:107A3000C30343445B78FB5C06EB0313DB689847A6
:107A4000E6E700BF44194020B8854100B418402043
:107A5000688B4100D68A410018834100F88B4100B1
:107A6000A88B4100A48A4100B88A410010B5FFF7F5
:107A700062FC064B1C782CB1FFF730FF044618B9A6
:107A8000FFF77EFF204610BD0124FBE7B41840201D
:107A9000054A00EBC0031344044A5B78D25C044BF4
:107AA00003EB02139B681847B8854100A48A410084
:107AB000A88B4100014B1860704700BF941D402007
:107AC000064A00EBC00301211344054A5B78D25CEF
:107AD000044B03EBC2035B68184700BFB885410045
:107AE000D68A4100688B4100064A00EBC0030021A2
:107AF0001344054A5B78D25C044B03EBC2035B681A
:107B0000184700BFB8854100D68A4100688B410004
:107B100008B5044B0221186801F042FABDE808409C
:107B200001F012BA4419402008B5044B022118682C
:107B300001F036FABDE8084001F00EBA44194020C1
:107B400008B5044B0221186801F02AFABDE8084084
:107B500001F010BA4419402008B5044B02211868FE
:107B600001F01EFABDE8084001F00CBA44194020AB
:107B7000014B1B68184700BF941D4020F8B507460D
:107B800000200E4614461D4605F026FB00213860F5
:107B90002846316005F034FB2060F8BD38B50C464E
:107BA0000021154605F01EFB23681844A8422060FA
:107BB00034BF0020012038BD704710B5D0B14368F4
:107BC000C3B10268013B0C4902EBC2021B04885C92
:107BD0008C180A4A03F47023617952F8302002EBC2
:107BE0008102D2F8801021F470210B4343F000434E
:107BF000C2F8803010BD00BFB885410064844100E8
:107C000098B10368094A03EBC303D25C084B53F8ED
:107C1000321043688A68012B22F0FC4238BF0123EE
:107C20005B0603F0FC4313438B607047B88541004B
:107C3000648441002DE9F043044685B0002858D003
:107C400003682D4D03EBC3032C4AE918887802EB37
:107C50000012D2E90207EA5C15250B7905FB023315
:107C6000274A4D7952F82360636806EB8505AA68B8
:107C7000002B35D0013BBB4053400340534043F001
:107C80000047DFF880804CF2503303AA02A901A814
:107C9000FFF774FFD8F8889102A9039A01A8FFF7AB
:107CA0007DFFB9F1000F1EDB0028F3D02168012011
:107CB000FFF75EFF4CF2503303AA02A901A8FFF7B9
:107CC0005DFFF56B02A9039A01A8FFF767FFEB07B9
:107CD0000DD50028F5D021680120FFF749FF08E005
:107CE00022F00047CDE70028E0D1AF60E2E70028AE
:107CF000F1D105B0BDE8F083B8854100C0804100F6
:107D00008084410000C02D407FB5044600283BD050
:107D100003681E4D03EBC3031D4AE918887802EB84
:107D20000012D2E90206EA5C15250B79497905FBB8
:107D30000233184A52F82350636805EB81018A68C0
:107D4000EBB1013BB340534003405A4042F0004284
:107D50008A604CF2503303AA02A901A8FFF70EFF74
:107D6000EE6B02A9039A01A8FFF718FFF30709D5E4
:107D70000028F5D021680120FFF7FAFE04E022F088
:107D80000042E5E70028F5D104B070BDB885410098
:107D9000C080410080844100704738B590B10368CD
:107DA00015250D4A03EBC303D118D45C4368097948
:107DB0000A4843B105FB0411FCF778FE012250F894
:107DC00021305A6338BD05FB041150F82120536B54
:107DD00023F001035363F5E7B88541008084410037
:107DE0007FB5044650B3436843B3036801A8144AFF
